:020000040800F2
:1000000030060020711C0008351B0008371B000853
:10001000391B00083B1B00083D1B000800000000C6
:100020000000000000000000000000003F1B00086E
:10003000411B000800000000431B0008451B00088E
:10004000991C00089D1C0008A11C0008A51C0008A4
:10005000A91C0008AD1C0008B11C0008B51C000854
:10006000B91C0008BD1C0008C11C0008C51C000804
:10007000C91C0008CD1C0008D11C0008D51C0008B4
:10008000D91C0008DD1C0008E11C0008E51C000864
:10009000E91C0008ED1C0008F11C0008F51C000814
:1000A000F91C0008FD1C0008011D0008051D0008C2
:1000B000091D00080D1D0008111D0008151D000870
:1000C000191D00081D1D0008211D0008251D000820
:1000D000291D0008491B00082D1D0008311D0008BE
:1000E000351D0008391D00083D1D0008411D000890
:1000F000451D0008491D00084D1D0008511D000840
:10010000551D0008591D00085D1D0008611D0008EF
:10011000651D0008691D00086D1D0008711D00089F
:10012000751D0008791D00084F1B00087D1D000883
:10013000811D0008851D0008891D00088D1D00080F
:10014000911D0008951D0008991D00089D1D0008BF
:10015000A11D0008A51D0008551B0008A91D0008C9
:10016000AD1D0008B11D0008B51D0008B91D00082F
:10017000BD1D0008C11D0008C51D000800000000CD
:10018000C91D0008CD1D0008D11D0008D51D00089F
:10019000D91D0008DD1D0008E11D0008E51D00084F
:1001A000E91D0008ED1D0008F11D000838B5040028
:1001B00001D1012032BD04F14005687808B900F092
:1001C00009F800F00CF800F022F8FFE7486100F0B1
:1001D00010F832BD00212970204600F0E1BB242038
:1001E00068702168C86820F40050C860204600F09C
:1001F0004DBB2168C86840F40050C8606A60202187
:1002000069702020A8700021616300207047216878
:10021000086920F49040086100222168486920F0B4
:100220002A00704790F84130202B12D109B11300F9
:1002300001D10120704701628284C2842121002201
:10024000426480F841100168C86840F0800000F006
:1002500034BA02207047036803F10C0252E8002F01
:100260000C337047226802F1140151E8001F143268
:10027000704738B5044694F84200202809D109B1E6
:10028000100001D1012032BD00F005F800F018FA8D
:1002900007E0022032BD0123236300206063204673
:1002A0007047010015D1226B012A11D10020009066
:1002B00025682A68009223685A680092009823688B
:1002C000FFF7CAFF42F0100200F048F9F7D100E052
:1002D0000121084632BD42E8001000287047F8B5F9
:1002E00004462268136811460846CD68466913F033
:1002F0000F0F03F0200105F0200007D1002918BFDF
:1003000000285BD02046BDE8F24063E2F70702D444
:1003100015F4907F52D0DA0705D5ED0503D5626C50
:1003200042F0010262645D0705D5F20703D5656CF2
:1003300045F0020565649A0705D5F50703D5626C9B
:1003400042F0040262641A0706D508B9F20703D521
:10035000636C43F008036364626C002A2DD00029AB
:100360001EBF0028204600F035FA20684069626C04
:10037000110701D440061BD5204600F0F4F921688E
:10038000486941060FD500F001F960B10FF235411F
:100390000165E06B00F0BFFC00280ED0E06B016D42
:1003A000BDE8F44008472046BDE8F24000F0C4BD77
:1003B000204600F0C1FD00206064F1BD206B0128E3
:1003C00004F1410140F08B80D80600D5EE0640F1E3
:1003D0008680002300931268009223685A68009276
:1003E000009B2268506942063DD5E26B1068406868
:1003F00080B20028E1D0A38D9842DEDAE085D06992
:10040000B0F5807F27D0226802F10C0555E8002F57
:10041000206800F10C0322F4807200F09FF8F2D102
:1004200000F0A0F8520800F11403520000F096F812
:10043000F6D100F097F800F1140322F0400200F02A
:100440008DF8F6D1202048700021216300F091F84A
:10045000E06B00F022FC02206063A18DE08D091AA0
:1004600089B2204637E0A38DE28DE08D9B1A0028EB
:100470001CBF98B2002870D02246156805F10C0404
:1004800054E8004F0C3524F4907445E800400028EF
:10049000F3D1146804F1140656E8004F106864089C
:1004A00000F11405640045E800400028F1D1202047
:1004B000487000211163146804F10C0151E8001F19
:1004C0000C3421F0100144E800100028F3D1022080
:1004D000506399B21046BDE8F44000F0DBBA1A064A
:1004E0002BD5280629D50978212936D1A068B0F561
:1004F000805F04BF2069002809D1226A2168108822
:10050000C0F308004860206A811C216205E0216A6E
:10051000481C2062226809785160E08C401EE0840B
:1005200080B2D0B92068C16821F08001C160216823
:10053000C86840F04000C860F1BD58060DD56A0695
:100540000BD52068C26822F04002C26020462022FB
:100550000A70BDE8F24000F0F0BCF1BD43E80020B5
:1005600000287047226802F1140555E8002F206822
:100570007047226802F10C0151E8001F0C3221F093
:10058000100142E800100028F3D17047226802F100
:10059000140353E8001F143221F0400142E8001018
:1005A0000028F3D1E06B704710B501460B68886BEB
:1005B0001968CA051ED40021C18500F02FF800F08B
:1005C00036F8FAD1036803F1140252E8002F5208FA
:1005D0001433520000F01EF8F4D100F02EF8202160
:1005E00080F84210026B012A04D1FFF734FE00F0BC
:1005F0000FF8FAD100214163026B012A04D1818DE9
:10060000BDE8104000F046BABDE8104000F096BCCE
:1006100022F0100243E8002100297047026802F12D
:100620000C0454E8002F016801F10C03704722F418
:10063000807243E8002100297047036803F1140227
:1006400052E8002F143322F0400243E80021002931
:10065000F3D17047806B01224263016B012918BFFF
:1006600000F06DBC818D490800F014BA0000000054
:1006700038B5846B2068416904F141052878212848
:1006800006D10A0604D50021E184204600F05BF87B
:10069000216848696978222906D1410604D50020DD
:1006A000E085204600F05FF8606C40F01000606468
:1006B0002046BDE8324000F03FBCC86000207047D3
:1006C00038B504461346A162A38500226264222045
:1006D00084F842000025E06B994AC263E06B994AB6
:1006E0000264E06B984AC2640A46E06B05652568BF
:1006F000E06B291D00F099FA0021009125682A6815
:100700000092236859680091009A206960B12168BD
:1007100001F10C0353E8001F206800F10C0241F4C2
:100720008071FFF7D8FDF2D1FFF79CFD41F0010188
:10073000FFF7D1FDF8D1FFF795FD41F04001FFF73C
:10074000CAFDF8D132BD036803F10C0252E8002F54
:100750000C3322F0C00243E800210029F3D120210C
:1007600080F841107047036803F10C0252E8002F33
:100770000C3322F4907243E800210029F3D103687E
:1007800003F1140252E8002F52081433520043E8D8
:1007900000210029F3D1016B01290BD1036803F17A
:1007A0000C0252E8002F0C3322F0100243E8002123
:1007B0000029F3D1202280F84220002101637047F4
:1007C00000000000806B0022C2850021C18400F07F
:1007D000B3BB00001CB590F84210222954D18168A7
:1007E000826AB1F5805F09D1016961B9036859680E
:1007F000C1F308011180826A911C0EE0002904BF38
:100800000169002902D10368596803E00168496859
:1008100001F07F011170826A511C8162C18D491EF5
:10082000C18589B271BB0268D16821F02001D16015
:1008300000230268D16821F48071D1600268516997
:10084000490849005161202280F842204363016B2E
:10085000012915D10363FFF7E1FEFFF7D9FEFAD1B5
:1008600001680A68D30607D5002200920B6800933E
:10087000046862680092009B818D00F00BF901E032
:1008800000F05CFB002016BD022016BD70B50646C8
:1008900032681169F06821F4405101431161D36855
:1008A0002A48B168034030690B4371690343F0691A
:1008B0000B430343D3605169B06921F44071014394
:1008C000516123498A421CBF2248824202D100F072
:1008D000C5FB01E000F0BAFB72683568F6691921C2
:1008E000B6F5004FA1FB00016FF0630412D1D30FE6
:1008F000520000F0CBFB00F02FF8E400323464200B
:10090000B4FBF0F0420002F4F87202EB011200F0C6
:10091000070010E0930F920000F0B8FB00F01CF805
:10092000240132346420B4FBF0F000F0F00202EB5A
:10093000011200F00F008018A86070BD00000000D8
:10094000A90500085506000871060008F369FFFFB5
:1009500000100140001401406421B0FBF1F104FBE0
:100960000104704710B5694C6948E0604FF4E1310B
:10097000216100206061A061E0610C216062A062E1
:10098000216204F10C00FFF711FC08B100F07EFCBD
:10099000214604F10C00BDE810400A22FFF769BCB3
:1009A0002DE9F84386B00446142101A800F070FC3C
:1009B000226857498A426AD1002000904FF00067B0
:1009C0005448554D4169554E41F0100141614FF475
:1009D0008068416901F0100100910021009B0091A5
:1009E0000221026842F0010202604FF4803900687F
:1009F00000F0010000904FF4C060009A0190029155
:100A000003200721002204900591039201A9444884
:100A100000F042FC05F17800306040210020F060D9
:100A20007061B061F0617062B1607760C6F810808B
:100A3000C6F82090304600F07DF808B100F026FCA2
:100A400000210020A6633566B166716706F1840552
:100A5000F066B0674FF480712860F167B463776621
:100A6000C6F87080C6F8809006F1600000F062F869
:100A700008B100F00BFC06F16000E0636C6100223D
:100A80000021252000F027FD252000F043FD07B0C0
:100A9000BDE8F083FEB50C464FEA0D0022A11B4DC8
:100AA000092200F05FFD0922694605F10C00FFF7FD
:100AB000B9FB1C4801788C422EBF641AC1F10A06AA
:100AC000A419D0F80461002212E093B203EB010CE8
:100AD0000A239CFBF3F30A2707FB13CC871915F8AD
:100AE0000C303B71761CB6F5807F28BF0026521C67
:100AF000E3B297B29F42E8D36418E1B2C0F8046150
:100B00000A29A8BF00240470F7BD0000D801002006
:100B100000100140303802404064024018010020BB
:100B20000000024010000020727820646F6E650A99
:100B30000000000070B5044600F020FD06460CB928
:100B4000012070BD04F13405022068700021297075
:100B500000F065F822681068C1070AD500F00EFDA4
:100B6000801B0628F6D32020286203216970032009
:100B700070BD1368DFF8580361680340A0680B4339
:100B8000E168034320690B4361690343A0690B4398
:100B9000E16903430B43216A606A1943042803D1C6
:100BA000E06A0843216B0143116022685369606A5F
:100BB000DB08042840EAC3030AD1A66AE06A33438B
:100BC00030B1A16991B9002E18BF022E20D017D3E1
:100BD0005361204600F098F9A96A3F228A4082605A
:100BE000012000222A626870002070BDB1F5005F0C
:100BF0000AD1032EECD8DFE806F00D0B0D03E7E772
:100C0000B0F1C07FE4D105E0022E03D9F61EDFD19A
:100C1000C001DDD5402129620120687070BD2168C6
:100C200008684008400008607047F8B5044604F1C1
:100C30003407002538787E6A012801D10220F2BDF0
:100C400001203870787801281DD14FF0020C87F808
:100C500001C000203862204600F046F9B86A3F2102
:100C600001FA00FCC6F808C02068016841F01601CE
:100C70000160F86820B12168086840F00800086049
:100C800000F005F801E03D7002252846F2BD21681C
:100C9000086840F0010008607047F8B5044604F1A8
:100CA00034056E6A00F06AFC07466878022805D0B1
:100CB00080212962002028700120F2BD2168086887
:100CC00020F016000860216800F006F904BF68698A
:100CD000002804D02168086820F008000860FFF7A9
:100CE0009EFF22681168C8070CD500F047FCC01BA6
:100CF0000628F6D32020286203216970002028707E
:100D00000320F2BDA86A3F218140B160002001218B
:100D100069702870F2BD90F83520022A03D0802136
:100D2000416501207047052180F835100168086889
:100D3000400840000860002070472DE9FC4106464D
:100D400006F134050020634A00904FF416506F6A94
:100D500011683C68B1FBF0F8A86A082101FA00F0BC
:100D600004420ED03068026853070AD5026822F0A8
:100D700004020260A86A8140B960296A41F0010159
:100D80002962A86A24FA00F2D1070BD532685169AA
:100D90000A0607D5012101FA00F0B860286A40F080
:100DA000020028620421A86A81400C4208D03368FE
:100DB0001A68900704D5B960286A40F004002862D8
:100DC0001021A86A81400C421BD033681A681007B2
:100DD00017D5B96030680268510307D50068010370
:100DE0000BD5696969B1304688470AE00168CA05D0
:100DF00003D4016821F008010160E96809B13046B7
:100E00008847A86A202181400C4241D0326810688E
:100E1000C3063DD5B9603068697805291ED10268DE
:100E200022F016020260316800F056F804BF6869CB
:100E3000002804D03068016821F0080101603F22D9
:100E4000A86A8240BA60012169700020E9692870AF
:100E500000293AD03046BDE8FC41084701684A0302
:100E600007D5006801030FD4296989B13046884746
:100E70000EE00168CA0507D4016821F01001016085
:100E800001226A7000202870A96809B1304688479D
:100E9000286AD0B1296AC80711D50521697031685F
:100EA000FFF7BEFE0098401C8045009003D33268D7
:100EB0001168C807F6D40121697000202870A9695B
:100EC00019B13046BDE8FC410847BDE8F381000098
:100ED0003F8010F00C000020486920F0800048613D
:100EE000E86800287047000030B50468256825F4DC
:100EF0008025256063608068402802D1A260E1609F
:100F000030BDA160E26030BD10B50146182208680E
:100F100007A400F0FF03103BB3FBF2F2800AA35CCE
:100F2000CB658002042A28BF001D886510BD000023
:100F3000000610160006101670477047704770477D
:100F40002DE9F04104000F4654D0494E306800F0BE
:100F50000F00B84202D200F073F84BD12168454D22
:100F6000880712D5490703D5A86840F4E050A86067
:100F70002078010703D5A86840F46040A860A968FC
:100F8000A06821F0F0010143A9602178C80729D5A4
:100F90006068012802D129688A0305E0022818BF89
:100FA000032803D129688A0103D423E029688A072A
:100FB00020D5A968890840EA8100A86000F0DEFA1F
:100FC0008046A868616800F00C00B0EB810F09D082
:100FD00000F0D4FAA0EB080041F289318842F0D346
:100FE00003202BE0306800F00F00874204D200F0AD
:100FF00027F801D0012021E02078420705D5A96813
:10100000E06821F4E0510143A96021780A0706D580
:10101000A868216920F4604040EAC100A86000F09F
:10102000B3FAAA681449154BC2F30312895CC8408D
:1010300018601348006800F0D7FA0020BDE8F0817E
:101040003770316801F00F01B94270470B480D4B02
:1010500000681A680C49C2F3822206E00748094B6F
:1010600000681A680849C2F34232895CC840704778
:10107000003C024000380240FC1B00080C0000202D
:101080000800002008380240901C0008D3BBD9B1EA
:10109000B2F5803F5BD2022A1ED98C46B1FBF2F139
:1010A00002FB11C31B0443EA1043B3FBF2FC02FB37
:1010B0001C3380B240EA0343B3FBF2F002FB103270
:1010C00040EA0C4000237047022A05D98446B0FB51
:1010D000F2F002FB10C270474AB105D100F00102E4
:1010E00049085FEA3000704700220023704700F093
:1010F0009BBA0B000200002100207047F7D30022AA
:1011000000237047904271EB030CF2D370B5B1FA33
:1011100081F4B3FA83F52C1BA340C4F1200532FA05
:1011200005F63343A2405FF00046E64002E05B086C
:101130005FEA3202841A71EB030524BF2046294678
:101140007641F4D302000B003000002170BD70B571
:10115000B1FA81F4B2FA82F5C4F120046419B4F151
:101160002006DAD3B2405FF00044F440002502E0EC
:1011700052085FEA3303C61A71EB020E24BF3046F1
:10118000714664416D41F3D302000B002000290039
:1011900070BD0EE002684368024408305FEAC37C19
:1011A00044BF4B445B1E52F804CB43F804CB091FE9
:1011B000F9D150F8041B0029ECD1704780B500F03C
:1011C00035FA00F007F800F04BFA00F071FAFFF77B
:1011D000C9FBFEE780B592B03021002206A800F0DE
:1011E00089FA1421002201A800F084FA002000905E
:1011F00001222448016841F080510160006800F03C
:10120000805000900020009900901F48016841F430
:10121000404101604FF48031006800F4404000908C
:1012200006A8009B0692079102224FF480010C92BF
:101230000D9119224FF4B4710E920F9102220421E4
:101240001092119100F060FA08B100F01FF800F060
:10125000E5FB08B100F01AF8002102220391029286
:101260000F204FF4805101904FF4A0520591049249
:10127000052101A8FFF764FE08B100F007F813B0DC
:1012800000BD0000403802400070004072B6FEE72A
:10129000002200F0FDBB00002DE9F84F0022DFF82E
:1012A000D441DFF8D4814FF00F0901230F68934038
:1012B0001F409F4240F0D7804FEA420C032505FAB9
:1012C0000CF56FEA050E4D6805F00306012E1CBFF4
:1012D00005F00305022D10D18668CD680EEA0606DA
:1012E00005FA0CF52E438660456825EA03034D6830
:1012F000C5F3001595402B43436093000D7905F02D
:101300000305032D1ED0C6688D680EEA060605FA91
:101310000CF52E43C6600E7906F00306022E11D19D
:10132000D50800EB850503F01C06D5F820B009FAB6
:1013300006FA2BEA0A0BD1F810A00AFA06F646EADA
:101340000B062E6205680EEA05060D7905F0030509
:1013500005FA0CF545EA060CC0F800C04D6815F416
:10136000403F00F080804FF0000ECDF800E04FEAE3
:10137000920CD8F8005045F48045C8F8005003F0AE
:101380000C03D8F800E03D4D0EF4804ECDF800E09F
:1013900009FA03F6DDF800E055F82C50B543384E55
:1013A000B04208BF4FF0000E36D0364EB04208BFF4
:1013B0004FF0010E30D0344EB04208BF4FF0020E55
:1013C0002AD0324EB04208BF4FF0030E24D0304E28
:1013D000B04208BF4FF0040E1ED02E4EB04208BFE0
:1013E0004FF0050E18D02C4EB04208BF4FF0060E3D
:1013F00012D02A4EB04208BF4FF0070E0CD0284E34
:10140000B04208BF4FF0080E06D0264EB0420CBFC7
:101410004FF0090E4FF00A0E0EFA03F3DFF85CE00E
:101420002B434EF82C30FE43A3684D683340ED0249
:1014300048BF3B43A360E3684D683340AD0248BFFB
:101440003B43E36063684D683340AD0348BF3B43B3
:101450006360236806EA030C4B68DB0348BF47EA76
:101460000C0CC4F800C0521C0F2A7FF61EAFBDE85A
:10147000F18F0000003C0140443802400838014030
:10148000000002400004024000080240000C02403C
:10149000001002400014024000180240001C0240EC
:1014A00000200240002402400A01010002D4274B20
:1014B0005A547047264801F00F01014401F8042CEA
:1014C000704724490A6860F30A2240F2FA5060F338
:1014D0001F420A60704770B51E4C2368C3F3022395
:1014E0000124C3F10705052D2FBF0F26C3F1070601
:1014F00004FA06F6761E1D1D072D34BF0023DB1EE1
:101500003140994004FA03F3BDE870405B1E1A4075
:101510001143C9E7010007D4012200F01F010E4B5F
:101520008A40400943F820207047401EB0F1807F78
:1015300001D30120704709494860F0220848027031
:1015400000238B6007220A600020704700E400E05F
:1015500018ED00E00CED00E000E100E010E000E03C
:1015600023ED00E04AB1000011F8013B521E00F8E3
:10157000013B1CBF11F8013BF8E770470148406888
:10158000704700BF0000002030B5144C606800F0C8
:101590000C00042802D0082802D01DE0104830BDFD
:1015A000226821680023480202F03F0204D5256822
:1015B0000B48C5F3881103E021680A48C1F388117C
:1015C000A0FB0101FFF762FD2168C1F30141491C45
:1015D0004900B0FBF1F030BD024830BD0438024094
:1015E00040787D010024F40038B50D4D0D4A29786E
:1015F00004464FF47A731068B3FBF1F1B0FBF1F0DD
:10160000FFF793FF50B9102C08D2002221464FF06B
:10161000FF30FFF760FFAC60002032BD012032BD1B
:10162000000000200C0000207047000080B50B482F
:10163000016841F400710160026842F48062026056
:10164000016841F4807101600320FFF73AFF0F2029
:10165000FFF7CAFF00F036FA002002BD003C02404E
:1016600081B0002000901148026842F0040202603C
:10167000016801F0040100910021009B00910268C3
:1016800042F080020260016801F0800100910021B7
:10169000009B0091026842F001020260006800F0C5
:1016A00001000090009801B0704700BF3038024040
:1016B00080B50020009000220D48016841F48001AF
:1016C00001600021006800F4800000903A20009B37
:1016D000FFF701FF3A20FFF71DFF002200214620FF
:1016E000FFF7F9FEBDE802404620FFF713BF00BF39
:1016F000303802404018491C1CBFB1F1010100F80C
:10170000012DF9D1704700002DE9F843040016D0EF
:101710002078DFF8F862C10713D5B06800F00C003C
:10172000042807D0B06800F00C0008283DD170688C
:1017300041023AD53068810303D56068002800F083
:101740005F812078B24F810719D5B06810F00C0F77
:1017500007D0B06800F00C0008285CD17068410226
:1017600059D43068810703D5E068012840F04881EA
:101770003168206921F0F80141EAC0013160217827
:10178000080773D56069A349002862D001220A6066
:10179000FFF7F4FE0546706F810767D4FFF7EEFE92
:1017A000401B0228F7D903202DE16068B0F5803F87
:1017B00003D1306840F4803012E0B0F5A02F08D19A
:1017C000306840F480203060316841F4803131600D
:1017D00007E0326822F480323260306820F48020E2
:1017E0003060606858B1FFF7C9FE0546316888036C
:1017F000A7D4FFF7C3FE401B6528F7D3D3E7FFF755
:10180000BDFE0546316888039BD5FFF7B7FE401B38
:101810006528F7D3C7E7E06868B101213960FFF7B1
:10182000ADFE054630688107A2D4FFF7A7FE401B36
:101830000228F7D9B7E700223A60FFF79FFE054676
:10184000316888079BD5FFF799FE401B0228F7D91E
:10185000A9E70860FFF792FE0546716F880705D576
:10186000FFF78CFE401B0228F7D99CE72078410740
:1018700060D5306C0025C1000BD4002000900125FC
:10188000316C41F080513164306C00F08050009038
:101890000098DFF88481D8F80000C10513D4D8F887
:1018A000000040F48070C8F80000FFF767FE814632
:1018B000D8F80010C80506D4FFF760FEA0EB0900B9
:1018C0000228F5D96FE7A068012805D00528306FF8
:1018D00006D140F004003067306F40F0010005E0B1
:1018E000400840003067306F20F00400306741F25C
:1018F0008938A06860B1FFF741FE8146316F8807E3
:1019000013D4FFF73BFEA0EB09004045F6D34AE7AE
:10191000FFF734FE8146316F880706D5FFF72EFEAC
:10192000A0EB09004045F6D33DE71DB1306C20F037
:1019300080503064A069002864D0B16801F00C01C7
:1019400008293AD002282AD100203866FFF716FE6F
:1019500005463068810105D5FFF710FE401B0228BF
:10196000F7D920E7E269206A616A0243A06A400869
:1019700042EA8112401E42EA0042E06A42EA006204
:10198000726001213966FFF7F9FD04463068810174
:1019900038D4FFF7F3FD001B0228F7D903E7002036
:1019A0003866FFF7EBFD0446306881012AD5FFF762
:1019B000E5FD001B0228F7D9F5E6012820D0706864
:1019C000E16900F480028A4202BF00F03F02216A0E
:1019D0008A4201BF47F6C0720240616AB2EB811FC2
:1019E0000ED1A16A00F4403202F580324908B2EB10
:1019F000014F02BF00F07060E16AB0EB016F01D0EF
:101A0000012000E00020BDE8F28300BF0038024062
:101A100000004742800E474200700040F8B500F0D9
:101A200020F8012000992060FFF7A8FD07463168E3
:101A3000C80306D4FFF7A2FDC01BA842F7D30320BA
:101A4000F2BD01206060FFF799FD0446316888030C
:101A500005D4FFF793FD001BA842F7D3EFE7002062
:101A6000F2BD0020009040F2E9350748074C0168BC
:101A7000044E41F080510160006800F080500090F9
:101A800070470000047000404038024040000E42A1
:101A900000B500BF130096469446103928BFA0E851
:101AA0000C50FAD85FEA417C28BF0CC048BF40F810
:101AB000042BC90728BF20F8022B48BF00F8012BD0
:101AC00000BD000081B0002000900B48416841F447
:101AD00080414160416801F4804100910021009BF8
:101AE0000091026842F080520260006800F080506D
:101AF0000090009801B070474038024030B4002494
:101B000012E050F8043BDA0744BF4B445B1E091F48
:101B1000042943F8044BFAD21A468D0744BF1C80AF
:101B2000921CCB0748BF147050F8041B0029E8D161
:101B300030BC7047FEE7FEE7FEE7FEE7FEE77047D2
:101B40007047704700F010B80448FEF7C8BB04485F
:101B5000FFF7F3B80348FFF7F0B80000E4010020F6
:101B600078010020180100200248426801785118CD
:101B7000416070470000002010B5034A7A440832E3
:101B8000024C7C44A41D03E0400000006000000003
:101B900004E01168101D114488470246A242F8D1A2
:101BA00010BD00004EF68851CEF20001086840F4E6
:101BB00070000860BFF34F8FBFF36F8F4FF001705D
:101BC000E1EE100A7047000035FFFFFF1C02000025
:101BD0001000002000000000BBF5FFFF1000000017
:101BE000A00000000000002000000000024908687A
:101BF00040F470000860704788ED00E000000000CD
:101C000000000000010203040607080900F00DF8B7
:101C1000002801D0FFF7B0FFAFF300800020AFF342
:101C20000080FFF7CBFA00F002F80120704700F0C7
:101C300001B800000746384600F002F8FBE7000054
:101C400080B5AFF30080024A11001820ABBEFBE75D
:101C5000260002000548014603B4684680F309885F
:101C6000AFF30080FFF79EFFFFF7D0FFA5EDF5FE75
:101C70000148804701480047ED1B0008551C00083B
:101C80000100000000000000100000000024F4002B
:101C90000000000001020304FFF7FEBFFFF7FEBFD4
:101CA000FFF7FEBFFFF7FEBFFFF7FEBFFFF7FEBF68
:101CB000FFF7FEBFFFF7FEBFFFF7FEBFFFF7FEBF58
:101CC000FFF7FEBFFFF7FEBFFFF7FEBFFFF7FEBF48
:101CD000FFF7FEBFFFF7FEBFFFF7FEBFFFF7FEBF38
:101CE000FFF7FEBFFFF7FEBFFFF7FEBFFFF7FEBF28
:101CF000FFF7FEBFFFF7FEBFFFF7FEBFFFF7FEBF18
:101D0000FFF7FEBFFFF7FEBFFFF7FEBFFFF7FEBF07
:101D1000FFF7FEBFFFF7FEBFFFF7FEBFFFF7FEBFF7
:101D2000FFF7FEBFFFF7FEBFFFF7FEBFFFF7FEBFE7
:101D3000FFF7FEBFFFF7FEBFFFF7FEBFFFF7FEBFD7
:101D4000FFF7FEBFFFF7FEBFFFF7FEBFFFF7FEBFC7
:101D5000FFF7FEBFFFF7FEBFFFF7FEBFFFF7FEBFB7
:101D6000FFF7FEBFFFF7FEBFFFF7FEBFFFF7FEBFA7
:101D7000FFF7FEBFFFF7FEBFFFF7FEBFFFF7FEBF97
:101D8000FFF7FEBFFFF7FEBFFFF7FEBFFFF7FEBF87
:101D9000FFF7FEBFFFF7FEBFFFF7FEBFFFF7FEBF77
:101DA000FFF7FEBFFFF7FEBFFFF7FEBFFFF7FEBF67
:101DB000FFF7FEBFFFF7FEBFFFF7FEBFFFF7FEBF57
:101DC000FFF7FEBFFFF7FEBFFFF7FEBFFFF7FEBF47
:101DD000FFF7FEBFFFF7FEBFFFF7FEBFFFF7FEBF37
:101DE000FFF7FEBFFFF7FEBFFFF7FEBFFFF7FEBF27
:041DF000FFF7FEBF3C
:0400000508001C557E
:00000001FF
